:031A1600016A0062
:10176400121E94120DB4121CC8121D3EE56AB4096F
:101774000050F990177EF82828730217990217A0D1
:101784000217A70217AE0217B50217BC0217C3024D
:1017940017CA0217D11214CF8F6A80D0120CBF8FD0
:1017A4006A80C91216768F6A80C21216ED8F6A801B
:1017B400BB12155D8F6A80B4120E978F6A80AD12CA
:1017C4000F788F6A80A6120A2D8F6A809F120B8968
:0417D4008F6A809800
:10000E00EF1FAC0670011E4C600A7D027CEFDCFE19
:04001E00DDFC80EC99
:0100220022BB
:101B2600121D9E7F98121A49121D6A121D9E7F99D8
:101B3600121A49121D6A121B728F137F01121E356B
:051B4600121E1DAF138B
:011B4B002277
:091E4900121B268F6B636BFF2254
:031E9E000000221F
:0F1D9E00D281D282121E9EC281121E9EC282224A
:0C1E1D00C281D282121E9ED281021E9E43
:021A4900AD07E7
:101A4B00E4FB74807E00A803088006CEA2E713CEC9
:101A5B0013D8F8FFEDF582EF558224FF9281D282E5
:0C1A6B00121E9EC282121E9E0BBB08D6EB
:011A7700224C
:101B7200E4FFD281FED282121E9E30810D7480A8B3
:101B820006088002C313D8FC4207C282121E9E0EB0
:031B9200BE08E2A8
:011B9500222D
:0A1E3500EF24FF9281D282C28222C4
:101D6A00E4FFD281D282121E9EA28133FFC2821266
:021D7A001E9EAB
:011D7C002244
:10002E000000000000000000002F0000000007008C
:10003E00070000147F147F1400242A7F2A12006206
:10004E0064081323003649552250000005030000B2
:10005E0000001C224100000041221C000014083E3A
:10006E0008140008083E0808000000A06000000800
:10007E000808080800006060000000201008040254
:10008E00003E5149453E0000427F40000042615112
:10009E004946002141454B31001814127F100027AC
:1000AE0045454539003C4A4949300001710905036F
:1000BE0000364949493600064949291E00003636A0
:1000CE000000000056360000000814224100001403
:1000DE0014141414000041221408000201510906E0
:1000EE0000324959513E007C1211127C007F494961
:1000FE004936003E41414122007F4141221C007F92
:10010E0049494941007F09090901003E4149497A9F
:10011E00007F0808087F0000417F41000020404119
:10012E003F01007F08142241007F40404040007F85
:10013E00020C027F007F0408107F003E4141413EC9
:10014E00007F09090906003E4151215E007F091911
:10015E0029460046494949310001017F0101003F0E
:10016E004040403F001F2040201F003F4038403F8E
:10017E0000631408146300070870080700615149F2
:10018E00454300007F41410000552A552A55000085
:10019E0041417F0000040201020400404040404003
:1001AE00000001020400002054545478007F48449B
:1001BE00443800384444442000384444487F0038D2
:1001CE005454541800087E0901020018A4A4A47CFB
:1001DE00007F080404780000447D400000408084C5
:1001EE007D00007F102844000000417F4000007C0D
:1001FE0004180478007C0804047800384444443819
:10020E0000FC242424180018242418FC007C080464
:10021E00040800485454542000043F444020003C3D
:10022E004040207C001C2040201C003C4030403CC4
:10023E00004428102844001CA0A0A07C0044645454
:10024E004C44141414141414000000000000000098
:10025E000000000000000000000000F80000000098
:10026E00000000333000000000100C06100C0600D9
:10027E00000000000000000040C07840C078400040
:10028E00043F04043F040400007088FC08300000A2
:10029E00001820FF211E0000F008F000E0180000FA
:1002AE0000211C031E211E0000F0088870000000B3
:1002BE001E2123241927211010160E000000000005
:1002CE000000000000000000000000E01804020022
:1002DE00000000071820400000020418E000000093
:1002EE000040201807000000404080F08040400091
:1002FE000202010F01020200000000F000000000E7
:10030E000101011F010101000000000000000000BA
:10031E0080B070000000000000000000000000002F
:10032E0000010101010101010000000000000000B8
:10033E000030300000000000000000008060180453
:10034E00006018060100000000E010080810E00030
:10035E00000F102020100F00001010F800000000F9
:10036E000020203F20200000007008080888700040
:10037E0000302824222130000030088888483000C0
:10038E000018202020110E000000C02010F80000E0
:10039E0000070424243F240000F808888808080079
:1003AE000019212020110E0000E01088881800008E
:1003BE00000F112020110E0000380808C838080060
:1003CE000000003F000000000070880808887000E0
:1003DE00001C222121221C0000E010080810E00061
:1003EE000000312222110F00000000C0C0000000EA
:1003FE00000000303000000000000080000000000F
:10040E000000806000000000000080402010080006
:10041E0000010204081020004040404040404000CF
:10042E0004040404040404000008102040800000AA
:10043E000020100804020100007048080808F000AF
:10044E000000003036010000C030C828E810E0007F
:10045E000718272423140B000000C038E00000000A
:10046E00203C23020227382008F888888870000074
:10047E00203F202020110E00C03008080808380048
:10048E00071820202010080008F808080810E000BF
:10049E00203F202020100F0008F88888E808100060
:1004AE00203F20202320180008F88888E808100034
:1004BE00203F200003000000C0300808083800006C
:1004CE0007182020221E020008F808000008F8086D
:1004DE00203F210101213F20000808F808080000F4
:1004EE000020203F2020000000000808F808080027
:1004FE00C08080807F00000008F888C0281808009F
:10050E00203F20012638200008F8080000000000D7
:10051E00203F20202020300008F8F800F8F80800CE
:10052E00203F003F003F200008F830C00008F808C8
:10053E00203F200007183F00E01008080810E000D8
:10054E000F10202020100F0008F808080808F000EF
:10055E00203F210101010000E01008080810E00012
:10056E000F18242438504F0008F8888888887000A7
:10057E00203F2000030C3020007088080808380047
:10058E000038202121221C00180808F8080818003D
:10059E000000203F2000000008F808000008F808BE
:1005AE00001F202020201F000878880000C838086F
:1005BE00000007380E010000F80800F80008F800E7
:1005CE00033C0700073C0300081868808068180881
:1005DE0020302C03032C30200838C800C8380800FF
:1005EE000000203F2000000010080808C83808004E
:1005FE002038262120201800000000FE02020200F2
:10060E000000007F40404000000C30C000000000A1
:10061E00000000010638C00000020202FE000000C9
:10062E00004040407F00000000000402020204006F
:10063E0000000000000000000000000000000000AC
:10064E008080808080808080000202040000000094
:10065E00000000000000000000008080808000008C
:10066E000019242222223F2008F80080800000007A
:10067E00003F112020110E0000000080808000003D
:10068E00000E112020201100000000808088F8004C
:10069E00000E112020103F2000008080808000007E
:1006AE00001F222222221300008080F088888818E2
:1006BE000020203F202000000000808080808000ED
:1006CE00006B94949493600008F800808080000082
:1006DE00203F210000203F2000809898000000005D
:1006EE000020203F2020000000000080989800008D
:1006FE0000C08080807F000008F8000080808000AD
:10070E00203F24022D302000000808F800000000D1
:10071E000020203F2020000080808080808080008C
:10072E00203F20003F20003F80800080808000001E
:10073E00203F210000203F200000808080800000AC
:10074E00001F202020201F008080008080000000DD
:10075E0080FFA12020110E0000000080808080000C
:10076E00000E112020A0FF808080800080808000FD
:10077E0020203F212000010000008080808080002A
:10078E000033242424241900008080E0808000009F
:10079E000000001F202000008080000000808000EC
:1007AE00001F202020103F2080808000008080804D
:1007BE0000010E30080601008080008000808080DD
:1007CE000F300C030C300F00008080008080800002
:1007DE000020312E0E31200080808000008080802D
:1007EE0080818E70180601000080808080808000DD
:1007FE000021302C2221300000000000807C0202FB
:10080E0000000000003F404000000000FF0000001C
:10081E0000000000FF0000000002027C80000000CB
:10082E000040403F000000000006010102020404E7
:08083E000000000000000000B2
:101CAE00EF4E60157D087C07ED1DAA0470011C4ADD
:091CBE0070F6EF1F70EA1E80E7CA
:011CC70022FA
:091E5200D2A6D2A5C2A5C2A622A7
:07000300D2A6C2A5D2A5227E
:0B1D8E00121B53121D99AF04121B53CF
:051D9900D2A6C2A62243
:071B4C00AC07121E527F7866
:101B5300C2A6E4FEAD07530580BD8004D2A5800272
:0E1B6300C2A5EF25E0FFD2A6C2A60EBE08E680
:011B71002251
:0E1DAD00121B4C121D99E4FF121D8E02000342
:0E1DBB00121B4C121D997F40121D8E02000358
:101A7800E924B0FFE433FEE4FDFC121A93E4FDFC14
:0B1A8800FFFE121A937F10E4FDFCFE2D
:101A9300AB07AA06ED4C6003021DBBAF03121DADDD
:011AA3002220
:021B96008F645A
:101B9800E4F9121A78E4F565AF647E007D017C00F3
:101BA800121A930565E565C3948040EC09B908E20B
:011BB800220A
:101C1B00D3EF9400EE940040147D657C18ED1D709D
:0D1C2B00011CED4C70F7EF1F70E61E80E30A
:011C38002289
:101D2800EF1FAA0670011E4A600BE4FDEDC3947B09
:051D380050EE0D80F7E4
:011D3D002283
:101AA400A907ED24B0FFE433FEE4FDFC121A93E928
:101AB40054F0C4540F7E004410FFE4FDFC121A934A
:0C1AC400E9540FFF7E00E4FDFC021A93C1
:101CFA007F8D121A8FE4FDFC7F14FE121A93E4FD05
:071D0A00FC7FAFFE021A93FB
:101D7D00E4FDFC7F8D121A89E4FDFC7FAEFE021A94
:011D8D0093C2
:101BFB00E4F9121A78E4F5137D017C00E4FFFE1280
:0F1C0B001A930513E513C3948040ED09B908E35C
:011C1A0022A7
:101BB900E4F9121A78E4F56C7D017C007F017E005E
:101BC900121A93056CE56CC3948040EC09B908E2DC
:011BD90022E9
:041056008F1C8D1D41
:10105A00E4F520F9EB24E0F520E51CD3947F400762
:10106A00E4F51C051D051DE51F64107069AD1DAF73
:10107A001C121AA4E4F975F010E520A429F582E4FB
:10108A0035F0F583E5822456F582E5833402F5834B
:10109A00E493FF7E007D017C00121A9309B908D6F9
:1010AA00E51D04FDAF1C121AA4E4F975F010E52041
:1010BA00A429F582E435F0F583E582245EF582E51C
:1010CA00833402F583E493FF7E007D017C00121ACB
:1010DA009309B908D622AD1DAF1C121AA4E4F975FA
:1010EA00F006E520A4242EF582E5F03400F583E528
:1010FA008229F582E43583F583E493FF7E007D013E
:09110A007C00121A9309B906D603
:0111130022B9
:041CE2008F1CA905A5
:101CE6007F017E00AD0119ED6009AD1C7C00120874
:031CF6007380F107
:011CF90022C8
:081114008F138D148A158B1650
:10111C00E4F51BF519E519C3951740030211BFC37C
:10112C00E517951914FD7F0A121CE2AC15AD16CF0C
:10113C00CDCFCECCCE1208857C007D0A1208858DD1
:10114C001AE51B7034E51714FFE519C39F502AE507
:10115C001A7023E518B40806C3132402800AE51894
:10116C006410704AE518C3138519F0A42513FF8584
:10117C00181F7B208033751B01E518B40815C313A9
:10118C0024028519F0A42513FFE51A2430FB8518D9
:10119C001F8016E518B41016C3138519F0A4251377
:1011AC00FFE51A2430FB85181FAD141210560519D3
:0311BC00021121FC
:0111BF00220D
:0A1959008F138D148B158A16891761
:10196300E4F519AB15AA16A9178519827583001218
:101973000846FB602085181FAD14AF131210567470
:10198300082513F513D394784007E4F513051405DC
:0519930014051980CECF
:01199800222C
:081269008F348D358A368B3776
:10127100E4F545C3E53664809480502285381F7BB0
:101281002D121056E538B40804740680027408253E
:1012910034F534C3E49537F537E49536F536E5375B
:1012A1004536700C85381F7B30AD35AF3402105692
:1012B100E5374536602AAE36AF377C007D0A120825
:1012C100DAED2430FFAE45054574392EF8A607AE98
:1012D10036AF377C007D0A1208DA8E368F3780D020
:1012E100AF451545EF602274392545F8E6FB853891
:1012F1001FAD35AF34121056E538B40804740680BA
:091301000274082534F53480D78C
:01130A0022C0
:041440008F218D2249
:10144400E4F533C3EA64809480500E753301C3E439
:101454009BF532E49AF53180048A318B32E4FBEB5C
:10146400C39525500974272BF876200B80F1E525C8
:1014740014FBAE31AF327C007D0A1208DAED243061
:10148400FF74272BF8A607AE31AF327C007D0A1219
:1014940008DA8E318F32EB60071BE532453170D2AA
:1014A400E5336011EBD39400400874262BF8762DB5
:1014B400800375272D74272525F8E4F6FB7A007937
:0B14C40027852618AD22AF2102195920
:100DB400E4FDFC7FAEFE121A82E4FDFC7F40FE12CD
:100DC4001A93E4FDFC7FB0FE121A93E4FDFC7F81CC
:100DD400FE121A93E4FDFC7FFFFE121A93E4FDFC5D
:100DE4007FA1FE121A93E4FDFC7FA6FE121A93E47F
:100DF400FDFC7FA8FE121A93E4FDFC7F3FFE121A4D
:100E040093E4FDFC7FC8FE121A93E4FDFC7FD3FE3D
:100E1400121A93E4FDFCFFFE121A93E4FDFC7FD545
:100E2400FE121A93E4FDFC7F80FE121A93E4FDFC8B
:100E34007FD8FE121A93E4FDFC7F05FE121A93E498
:100E4400FDFC7FD9FE121A93E4FDFC7FF1FE121A19
:100E540093E4FDFC7FDAFE121A93E4FDFC7F12FE9C
:100E6400121A93E4FDFC7FDBFE121A93E4FDFC7F6F
:100E740030FE121A93E4FDFC7F8DFE121A93E4FDFA
:100E8400FC7F14FE121A93E4FDFC7FAFFE121A934A
:030E9400021BFB43
:051E6B00E4AF59F55938
:011E7000224F
:101C9300E4FF20A4010F20A3027F0220A2027F03FE
:0A1CA30020A1027F0420A0027F05AB
:011CAD002214
:1018D000855556121C938F55E556B40107E5557092
:1018E00003755901E556B40207E5557003755902B1
:1018F000E556B40307E5557003755903E556B4047E
:1019000007E5557003755904E556B40507E55570AC
:0419100003755905FD
:0119140022B0
:03002B00021AD0E6
:091AD000C0E0C0D075D000C007D1
:101AD9000558E55870020557C2CFC39464E5579479
:0C1AE9000040097557007558001218D015
:071AF500D007D0D0D0E03291
:101CC800E4F5C9F5C875CC6675CDFC75CA6675CBE3
:0A1CD800FCD2CAD2ADD2AFC2BD22C9
:101AFC005461736B31005461736B32005461736BBE
:101B0C0033005461736B34005461736B3500546152
:0A1B1C00736B36005461736B3700E1
:100CBF00D280121BFB756601121E6B8F67E5676092
:100CCF007324FE601B146026146063146063240495
:100CDF0070620566E566D3940740597566018054C6
:100CEF001566E566C39401504B7566078046E56649
:100CFF0014B40700503E900D1375F003A4C583255F
:100D0F00F0C58373020D28020D2B020D2E020D313B
:100D1F00020D34020D37020D3A7F02227F03227F2C
:100D2F0004227F05227F06227F07227F08227F0071
:100D3F00227F0022E56614B407004003020CC7901F
:100D4F000D5C75F003A4C58325F0C58373020D7187
:100D5F00020D79020D81020D89020D91020D99028A
:100D6F000DA17BFF7A1A79FC802E7BFF7A1B79020B
:100D7F0080267BFF7A1B7908801E7BFF7A1B790EFA
:100D8F0080167BFF7A1B7914800E7BFF7A1B791AF2
:100D9F0080067BFF7A1B79207518107D037F2C123C
:050DAF001959020CC7F8
:0E1DC9005461736B310052756E6E696E670067
:10167600E4F551F552755C14121BFB7BFF7A1D795C
:10168600C9751810E4FD7F2C1219597BFF7A1D7954
:10169600CF7518107D037F24121959121E94AD5C64
:1016A600AF5C121839121E6B8F6DE56D600B24FB53
:1016B6006005047004801E80251213AA121DF3EF24
:1016C60060E3121D54121E6B8F6DE56D60F724FBEF
:1016D600600C0470F0E4FDFF1218397F0122E4FD6E
:0716E600FF1218397F0022FA
:101D11005389F0438901758AA4758CFFC28DD28CD9
:071D2100D2A9D2AFC2B92222
:03000B000219993E
:10199900C0E0C0D0758AA4758CFF055A055BE55A6D
:1019A900C394644003755A00E55BC39464400375AE
:1019B9005B00E55AC3955D50028001C39291E55BD6
:0F19C900C3955E50028001C39297D0D0D0E03218
:05002600D293C29222FA
:051E7100C293D2922291
:051E7600D293D292227C
:051E7B00C293C2922297
:051E8000D295C296227C
:051E8500C295D2962277
:051E8A00D295D2962262
:051E8F00C295C296227D
:051E9400D294021D11B3
:0E1DD7005461736B320052756E6E696E670058
:1016ED00E4F551F552755C14121BFB7BFF7A1D79E5
:1016FD00D7751810E4FD7F2C1219597BFF7A1D79CF
:10170D00DD7518107D037F24121959121E94AD5CDE
:10171D00AF5C121839121E6B8F6EE56E600B24FBD9
:10172D006005047004801E80251213AA121DF3EFAC
:10173D0060E3121D54121E6B8F6EE56E60F724FB75
:10174D00600C0470F0E4FDFF1218397F0122E4FDF6
:07175D00FF1218397F002282
:0E1DE5005461736B330052756E6E696E670049
:10155D00E4F551F552755C14121BFB7BFF7A1D7976
:10156D00E5751810E4FD7F2C1219597BFF7A1D7952
:10157D00EB7518107D037F24121959121E94AD5C62
:10158D00AF5C121839121E6B8F6FE56F600B24FB69
:10159D0060050470048034803B1213AA121DF3EF12
:1015AD0060E3121D54121E01755C0C8006121DF3B2
:1015BD00EF70051213AA80F5121D54121E6B8F6F5A
:1015CD00E56F60F724FB600C0470F0E4FDFF12186A
:0D15DD00397F0122E4FDFF1218397F002242
:101C39005461736B350043616C69622E2E0020205C
:0E1C490020202020200052756E6E696E67000C
:100E9700E4F551F552755C12121BFB7BFF7A1C7946
:100EA70039751810E4FD7F2C1219597BFF7A1C79CC
:100EB7003F7518107D037F24121959121E947F6401
:100EC7007E0012000E121E5B7BFF7A1C7947751895
:100ED700107D037F241219597BFF7A1C794F7518EF
:100EE700107D037F24121959121E6B8F70E57060F5
:100EF7000B24FB60050470048065806C121E491288
:100F07001E3FEF6008121E491211C080F2121D54D5
:100F1700121E49121DF3EF70051213AA80F5121D58
:100F270054121E01755C0C121E49121DF3EF700559
:100F37001213AA80F5121D54121E01755C12121E9F
:100F470049121E3FEF70051213AA80F5121D5412A5
:100F57001E6B8F70E57060F724FB600C0470F0E483
:100F6700FDFF1218397F0122E4FDFF1218397F00B7
:010F77002257
:101C57005461736B350043616C69622E2E0020203E
:0E1C670020202020200052756E6E696E6700EE
:100F7800E4F551F552755C16121BFB7BFF7A1C7960
:100F880057751810E4FD7F2C1219597BFF7A1C79CC
:100F98005D7518107D037F24121959121E947F6401
:100FA8007E0012000E121E5B7BFF7A1C7965751895
:100FB800107D037F241219597BFF7A1C796D7518EF
:100FC800107D037F24121959AD5CAF5C12183912D9
:100FD8001E6B8F71E571600B24FB60050470048043
:100FE8005B80621213AA121DF3EF60E3121D541204
:100FF8001E01755C0C8006121DF3EF70051213AA12
:1010080080F5121D54121E01755C128006121E3FD7
:10101800EF70051213AA80F5121D54121E3FEF60DF
:1010280008121E491211C080F2121D54121E6B8F35
:1010380071E57160F724FB600C0470F0E4FDFF12A9
:0E10480018397F0122E4FDFF1218397F0022C3
:1019D8005461736B36004E756D626572206F6620B8
:1019E8006C617073002020202020202020202020DF
:1019F80020202000200043616C69622E2E002020E8
:0E1A080020202020200052756E6E696E67004F
:031A190001680160
:100A2D00E4F551F552F55CAD5CAF5C121839121B53
:100A3D00FB7BFF7A1979D8751810E4FD7F2C1219FC
:100A4D00597BFF7A1979DE7518107D027F0812190E
:100A5D0059E56964036033E568FB7A007517017524
:100A6D0018107D047F3C121114121E6B8F69E569FD
:100A7D00B4010A0568E568B40603756801E569B453
:100A8D0002CFD568CC75680580C77BFF7A1979EDE3
:100A9D007518107D027F081219597BFF7A1979FCA0
:100AAD007518107D047F3C1219597BFF7A1979FE58
:100ABD007518107D037F24121959121E947F647EC0
:100ACD000012000E121E5B7BFF7A1A790675181044
:100ADD007D037F241219597BFF7A1A790E75181030
:100AED007D037F24121959121E6B8F69E569600B06
:100AFD0024FB600504700480718078AF681568EF81
:100B0D006058755C14E4F508F509121E49121DF3C1
:100B1D00EF70051213AA80F5121D54121E01755C9B
:100B2D000C8006121DF3EF70051213AA80F5121D2D
:100B3D0054121E01755C128006121E3FEF700512D5
:100B4D0013AA80F5121D54121E3FEF6008121E49A4
:100B5D001211C080F2121D5480A1121E6B8F69E517
:100B6D006960F724FB600C0470F0E4FDFF12183986
:0B0B7D007F0122E4FDFF1218397F0009
:010B8800224A
:101C75005461736B370043616C69622E2E0020201E
:0E1C850020202020200052756E6E696E6700D0
:100B8900E4F508F509F551F552755C14121BFB7B68
:100B9900FF7A1C7975751810E4FD7F2C1219597BA1
:100BA900FF7A1C797B7518107D037F24121959125D
:100BB9001E947F647E0012000E121E5B7BFF7A1C5E
:100BC90079837518107D037F241219597BFF7A1CCC
:100BD900798B7518107D037F24121959AD5CAF5CB0
:100BE900121839121E6B8F72E572600D24FB6006B4
:100BF900047006020CAD020CB61213AA121DF3EF13
:100C09007008121E491211C080F2121D547D0F7F07
:100C19000F1218397FC87E0012000E1218867D1433
:100C29007F141218397F267E0212000E121D5412EB
:100C39001E017D147FEC1218397FE67E0012000E2A
:100C49001213AA755C14121DF3EF70051213AA8012
:100C5900F5121D54121E01755C0C8006121DF3EF6E
:100C690070051213AA80F5121D54121E01755C1429
:100C79008006121E3FEF70051213AA80F5121D544B
:100C8900755C12121E3FEF6008121E491211C080D6
:100C9900F2121D54121E6B8F72E57260F724FB600D
:100CA9000C0470F0E4FDFF1218397F0122E4FDFF06
:050CB9001218397F0054
:010CBE002213
:0B1A1C00015F00026200000260000099
:101D3E0043892053877F759850758DFD758BFDD225
:061D4E008ED2ACD2AF22E0
:051E9900AE62AF632200
:071E640085626085636122C5
:0C1E2900C3E5639561FFE5629560FE2251
:030023000217D8E9
:0F17D800C0E0C0D075D000C000C005C006C0077B
:1017E700309842C298E55F7006E599645570367483
:1017F70073255FF8A699055FE55F640B7027F55FB2
:10180700FFFE74732EF8E62FFF0EBE0AF5787DE60D
:10181700B507127874E6B4530C787AE6FE18E6FD3D
:05182700ED8E62F56387
:0D182C00D007D006D005D000D0D0D0E032DB
:101A2700015004014F00014E1902510000025300FA
:011A370000AE
:10130B00121B268F6B636BFFE56B70030213A5E556
:10131B006B54E0FF3395E0FEEF64E04E700AE56B33
:10132B0020E0057E007F5022E56B5407FFBF0710BE
:10133B00E56B5480FF3395E04F70057EFF7FB02245
:10134B00E56B30E7057E007F1E22E56B30E0057E06
:10135B00FF7FE222E56B30E6057E007F1422E56B12
:10136B0030E1057EFF7FEC22E56B30E5057E007FEB
:10137B000A22E56B30E2057EFF7FF622E56B30E457
:10138B00057E007F0522E56B30E3057EFF7FFB22A8
:0F139B00E56B54186004E4FEFF22AE51AF5222FE
:1013AA0012130BAB07AA06AF50EF3395E0FEAD035D
:1013BA00AC021208738E0A8F0BEB2554F554EA35EA
:1013CA0053F553D3E55494E8E55364809483400677
:1013DA007553037554E8C3E5549418E5536480942F
:1013EA007C50067553FC755418AF4FEF3395E0FEE9
:1013FA00AC53AD541208738F828E83C3EB9552FFA0
:10140A00EA9551FEAD4EED3395E0FC120873E50BFB
:10141A002582CDE50A3583CD2FFFED3EFE7C007D8A
:10142A000A1208DAAE078A518B52E55C2EFFC3E531
:06143A005C9EFD02183962
:101A38000248000302460019024A03E8027E000039
:091E5B00E4787EF608F6021E642C
:1011C000121E29C3E49FF50BE49EF50AAF0BAB0793
:1011D000FA3395E0F9F8AE48AF49EE3395E0FDFCFF
:1011E0001209108F0F8E0E8D0D8C0CC3E50B787FBE
:1011F00096FFE50A1896AB07FA3395E0F9F8AE4684
:10120000AF47EE3395E0FDFC1209108F138E128D5F
:10121000118C10E50F2513FFE50E3512FEE50D3597
:1012200011FDE50C3510FCC006C007AE4AAF4BAB54
:1012300007AA06EA3395E0F9F8D007D00612191587
:10124000AE07787EA60A08A60BD3EE648094AD4064
:10125000027E2DC3EE6480945350027ED3C3E55CBE
:091260009EFFE55C2EFD02183929
:101839008F148D15C3E514648094804008121E80AE
:1018490085145E8009121E85E514F404F55EC3E56E
:101859001564809480400812002685155D80091260
:101869001E71E515F404F55DE55ED39464400375D6
:0D1879005E64E55DD394644003755D6422F8
:0E1DF300E56B547EFFBF7E037F01227F00223E
:0A1E3F00E56B70037F01227F002293
:0E1E01007D0F7F0F1218397F647E0002000EE5
:101D5400E4FDFF121839C280C2837FC87E001200DE
:061D64000ED283D28022A2
:0E1E0F007D197FE71218397FFA7E0002000E5F
:10188600121E29C3EE648094805007C3E49FFFE4D0
:101896009EFEC374649FFF74199EFED3EF9400EE00
:1018A6006480948040097DE77F1912183980D17DC4
:1018B6000A7FF61218397F327E0012000EE4FDFF11
:0A18C6001218397FC87E0002000EE0
:101BDA00486F6D650047532053656E736F723A0004
:101BEA00507265737320746F204D656E752E2E2E9C
:011BFA0000EA
:1014CF00E4F509F512121BFB7BFF7A1B79DA75180D
:1014DF0010E4FD7F301219597BFF7A1B79DF7518E5
:1014EF00107D027F181219597BFF7A1B79EA751844
:1014FF00107D06E4FF121959121E6B8F12E512B4FC
:10150F0003037F0122121B268F09750808E508D3F4
:10151F00940040E4E50814FFE509A807088002C31A
:10152F0013D8FC5401FF74092508F8A607E50875C0
:10153F00F011A424F0FF74092508F8E6FB7A007572
:0E154F0017017518107D04121114150880BFC5
:030000000215EAFC
:0C15EA00787FE4F6D8FD75817F02163191
:10084600BB010CE58229F582E5833AF583E0225067
:1008560006E92582F8E622BBFE06E92582F8E222B1
:0D086600E58229F582E5833AF583E49322CB
:10087300EF8DF0A4A8F0CF8CF0A428CE8DF0A42E99
:02088300FE2253
:10088500BC000BBE0029EF8DF084FFADF022E4CC57
:10089500F875F008EF2FFFEE33FEEC33FCEE9DEC20
:1008A500984005FCEE9DFE0FD5F0E9E4CEFD22ED66
:1008B500F8F5F0EE8420D21CFEADF075F008EF2FB0
:1008C500FFED33FD4007985006D5F0F222C398FDA1
:0508D5000FD5F0EA223E
:1008DA00C2D5EC30E709B2D5E4C39DFDE49CFCEE39
:1008EA0030E715B2D5E4C39FFFE49EFE120885C324
:1008FA00E49DFDE49CFC800312088530D507C3E41F
:06090A009FFFE49EFE22A7
:10091000E88FF0A4CC8BF0A42CFCE98EF0A42CFC86
:100920008AF0EDA42CFCEA8EF0A4CDA8F08BF0A404
:100930002DCC3825F0FDE98FF0A42CCD35F0FCEB63
:100940008EF0A4FEA9F0EB8FF0A4CFC5F02ECD3928
:0F095000FEE43CFCEAA42DCE35F0FDE43CFC2295
:10191500C2D5E830E70FB2D5E4C39BFBE49AFAE4FD
:1019250099F9E498F8EC30E717B2D512194B12097A
:101935009BE4C39BFBE49AFAE499F9E498F88003E5
:1019450012099B30D50DE4C39FFFE49EFEE49DFD87
:04195500E49CFC22F0
:1015F600021764E493A3F8E493A34003F68001F290
:1016060008DFF48029E493A3F85407240CC8C333F5
:10161600C4540F4420C8834004F456800146F6DFC4
:10162600E4800B0102040810204080901A16E47E24
:10163600019360BCA3FF543F30E509541FFEE493B9
:10164600A360010ECF54C025E060A840B8E493A380
:10165600FAE493A3F8E493A3C8C582C8CAC583CAAB
:10166600F0A3C8C582C8CAC583CADFE9DEE780BE63
:011A4800009D
:10095F0075F008758200EF2FFFEE33FECD33CDCC4F
:10096F0033CCC58233C5829BED9AEC99E5829840D2
:10097F000CF582EE9BFEED9AFDEC99FC0FD5F0D6AF
:10098F00E4CEFBE4CDFAE4CCF9A88222B800C1B9D9
:10099F000059BA002DEC8BF084CFCECDFCE5F0CB17
:1009AF00F97818EF2FFFEE33FEED33FDEC33FCEB50
:1009BF0033FB10D703994004EB99FB0FD8E5E4F90B
:1009CF00FA227818EF2FFFEE33FEED33FDEC33FCF8
:1009DF00C933C910D7059BE99A4007EC9BFCE99AEC
:1009EF00F90FD8E0E4C9FAE4CCFB2275F010EF2F31
:1009FF00FFEE33FEED33FDCC33CCC833C810D70731
:100A0F009BEC9AE899400AED9BFDEC9AFCE899F86B
:0E0A1F000FD5F0DAE4CDFBE4CCFAE4C8F922FE
:00000001FF
